:020000040800F2
:100000000000022091270008FD260008FF260008B6
:10001000012700080327000805270008000000004A
:10002000000000000000000000000000072700089A
:1000300009270008000000000B2700080D27000812
:10004000E1270008E1270008E1270008E127000870
:10005000E1270008E1270008E1270008E127000860
:10006000E1270008E1270008E1270008E127000850
:10007000E1270008E1270008E1270008E127000840
:10008000E1270008E1270008E12700080000000040
:10009000000000000000000000000000E127000850
:1000A000E1270008E1270008E1270008E127000810
:1000B000E1270008E1270008E1270008E127000800
:1000C000E1270008E1270008E1270008E1270008F0
:1000D000E1270008E1270008E127000800000000F0
:1000E000E1270008E1270008E127000800000000E0
:1000F000000000000000000000000000E1270008F0
:1001000000000000E1270008E1270008E1270008BF
:1001100000000000000000000000000000000000DF
:10012000E1270008E1270008E1270008E12700088F
:10013000E1270008000000000000000000000000AF
:10014000000000000000000000000000E12700089F
:10015000E1270008E1270008E1270008E12700085F
:10016000E1270008E127000800000000000000006F
:10017000000000000000000000000000000000007F
:1001800000000000E127000800000000000000005F
:08019000E1270008E127000847
:1001A00010B5054C237833B9044B13B10448AFF3B1
:1001B00000800123237010BD7000002000000000AB
:1001C0008430000808B5034B1BB103490348AFF363
:1001D000008008BD0000000074000020843000088A
:1001E00001F0FF01102A2BDB10F0070F08D010F8E8
:1001F000013B013A8B422DD010F0070F42B3F6D1EC
:10020000F0B441EA012141EA014122F007047FF004
:1002100000070023F0E80256083C85EA010586EA5B
:10022000010685FA47F5A3FA87F586FA47F6A5FA97
:1002300087F68EB9EED1F0BC01F0FF0102F00702A3
:1002400032B110F8013B013A83EA010313B1F8D14E
:100250000020704701387047002D06BF354603382F
:10026000073815F0010F07D1013015F4807F02BF68
:10027000013015F4C03F0130F0BC0138704700BFB9
:1002800081F0004102E000BF83F0004330B54FEA47
:1002900041044FEA430594EA050F08BF90EA020FB4
:1002A0001FBF54EA000C55EA020C7FEA645C7FEA47
:1002B000655C00F0E2804FEA5454D4EB5555B8BF6A
:1002C0006D420CDD2C4480EA020281EA030382EADB
:1002D000000083EA010180EA020281EA0303362D6D
:1002E00088BF30BD11F0004F4FEA01314FF4801C40
:1002F0004CEA113102D0404261EB410113F0004F52
:100300004FEA03334CEA133302D0524263EB430308
:1003100094EA050F00F0A780A4F10104D5F1200EA6
:100320000DDB02FA0EFC22FA05F2801841F1000101
:1003300003FA0EF2801843FA05F359410EE0A5F1D5
:1003400020050EF1200E012A03FA0EFC28BF4CF006
:10035000020C43FA05F3C01851EBE37101F00045BC
:1003600007D54FF0000EDCF1000C7EEB00006EEBC9
:100370000101B1F5801F1BD3B1F5001F0CD3490853
:100380005FEA30004FEA3C0C04F101044FEA4452AA
:1003900012F5800F80F09A80BCF1004F08BF5FEA31
:1003A000500C50F1000041EB045141EA050130BD11
:1003B0005FEA4C0C404141EB010111F4801FA4F1B4
:1003C0000104E9D191F0000F04BF01460020B1FA09
:1003D00081F308BF2033A3F10B03B3F120020CDA41
:1003E0000C3208DD02F1140CC2F10C0201FA0CF01F
:1003F00021FA02F10CE002F11402D8BFC2F1200C84
:1004000001FA02F120FA0CFCDCBF41EA0C01904039
:10041000E41AA2BF01EB0451294330BD6FEA040482
:100420001F3C1CDA0C340EDC04F11404C4F120026D
:1004300020FA04F001FA02F340EA030021FA04F37F
:1004400045EA030130BDC4F10C04C4F1200220FAD6
:1004500002F001FA04F340EA0300294630BD21FA14
:1004600004F0294630BD94F0000F83F4801306BFDA
:1004700081F480110134013D4EE77FEA645C18BFCE
:100480007FEA655C29D094EA050F08BF90EA020F65
:1004900005D054EA000C04BF1946104630BD91EA5D
:1004A000030F1EBF0021002030BD5FEA545C05D160
:1004B0004000494128BF41F0004130BD14F580049F
:1004C0003CBF01F5801130BD01F0004545F0FE4113
:1004D00041F470014FF0000030BD7FEA645C1ABF48
:1004E000194610467FEA655C1CBF0B46024650EA7F
:1004F000013406BF52EA033591EA030F41F40021AB
:1005000030BD00BF90F0000F04BF0021704730B530
:100510004FF4806404F132044FF000054FF0000105
:1005200050E700BF90F0000F04BF0021704730B5C6
:100530004FF4806404F1320410F0004548BF40429B
:100540004FF000013EE700BF42004FEAE2014FEAF0
:1005500031014FEA02701FBF12F07F4393F07F4FCB
:1005600081F06051704792F0000F14BF93F07F4FFD
:10057000704730B54FF4607401F0004521F0004140
:1005800020E700BF50EA010208BF704730B54FF0C6
:1005900000050AE050EA010208BF704730B511F0CB
:1005A000004502D5404261EB41014FF4806404F103
:1005B00032045FEA915C3FF4DCAE4FF003025FEA85
:1005C000DC0C18BF03325FEADC0C18BF033202EB0D
:1005D000DC02C2F1200300FA03FC20FA02F001FA67
:1005E00003FE40EA0E0021FA02F11444C1E600BF06
:1005F00070B54FF0FF0C4CF4E06C1CEA11541DBFB9
:100600001CEA135594EA0C0F95EA0C0F00F0DEF883
:100610002C4481EA030621EA4C5123EA4C5350EA68
:10062000013518BF52EA033541F4801143F48013B9
:1006300038D0A0FB02CE4FF00005E1FB02E506F04A
:100640000042E0FB03E54FF00006E1FB03569CF09F
:10065000000F18BF4EF0010EA4F1FF04B6F5007FA5
:1006600064F5407404D25FEA4E0E6D4146EB060617
:1006700042EAC62141EA55514FEAC52040EA5E50A0
:100680004FEACE2EB4F1FD0C88BFBCF5E06F1ED84A
:10069000BEF1004F08BF5FEA500E50F1000041EB81
:1006A000045170BD06F0004646EA010140EA02002E
:1006B00081EA0301B4EB5C04C2BFD4EB0C0541EA50
:1006C000045170BD41F480114FF0000E013C00F365
:1006D000AB8014F1360FDEBF002001F0004170BD89
:1006E000C4F10004203C35DA0C341BDC04F11404A2
:1006F000C4F1200500FA05F320FA04F001FA05F22E
:1007000040EA020001F0004221F0004110EBD370FA
:1007100021FA04F642EB06015EEA430E08BF20EA26
:10072000D37070BDC4F10C04C4F1200500FA04F3C9
:1007300020FA05F001FA04F240EA020001F000415B
:1007400010EBD37041F100015EEA430E08BF20EACE
:10075000D37070BDC4F1200500FA05F24EEA020E16
:1007600020FA04F301FA05F243EA020321FA04F045
:1007700001F0004121FA04F220EA020000EBD370FC
:100780005EEA430E08BF20EAD37070BD94F0000FFC
:100790000FD101F00046400041EB010111F4801F30
:1007A00008BF013CF7D041EA060195F0000F18BFE1
:1007B000704703F00046520043EB030313F4801F1D
:1007C00008BF013DF7D043EA0603704794EA0C0FD7
:1007D0000CEA135518BF95EA0C0F0CD050EA4106ED
:1007E00018BF52EA4306D1D181EA030101F000416A
:1007F0004FF0000070BD50EA410606BF1046194692
:1008000052EA430619D094EA0C0F02D150EA01369D
:1008100013D195EA0C0F05D152EA03361CBF1046DE
:1008200019460AD181EA030101F0004141F0FE417D
:1008300041F470014FF0000070BD41F0FE4141F401
:10084000780170BD70B54FF0FF0C4CF4E06C1CEA01
:1008500011541DBF1CEA135594EA0C0F95EA0C0FB6
:1008600000F0A7F8A4EB050481EA030E52EA033571
:100870004FEA013100F088804FEA03334FF0805592
:1008800045EA131343EA12634FEA022245EA1115BF
:1008900045EA10654FEA00260EF000419D4208BF70
:1008A000964244F1FD0404F5407402D25B084FEA1D
:1008B0003202B61A65EB03055B084FEA32024FF4C9
:1008C00080104FF4002CB6EB020E75EB030E22BF26
:1008D000B61A754640EA0C005B084FEA3202B6EBE6
:1008E000020E75EB030E22BFB61A754640EA5C0095
:1008F0005B084FEA3202B6EB020E75EB030E22BF25
:10090000B61A754640EA9C005B084FEA3202B6EB25
:10091000020E75EB030E22BFB61A754640EADC00E4
:1009200055EA060E18D04FEA051545EA16754FEA46
:1009300006164FEAC30343EA52734FEAC2025FEA64
:100940001C1CC0D111F4801F0BD141EA00014FF0F3
:1009500000004FF0004CB6E711F4801F04BF0143C4
:100960000020B4F1FD0C88BFBCF5E06F3FF6AFAEE0
:10097000B5EB030C04BFB6EB020C5FEA500C50F170
:10098000000041EB045170BD0EF0004E4EEA1131F3
:1009900014EB5C04C2BFD4EB0C0541EA045170BDFA
:1009A00041F480114FF0000E013C90E645EA060E3E
:1009B0008DE60CEA135594EA0C0F08BF95EA0C0F6C
:1009C0003FF43BAF94EA0C0F0AD150EA01347FF4B4
:1009D00034AF95EA0C0F7FF425AF104619462CE78B
:1009E00095EA0C0F06D152EA03353FF4FDAE1046EE
:1009F000194622E750EA410618BF52EA43067FF43F
:100A0000C5AE50EA41047FF40DAF52EA43057FF4CE
:100A1000EBAE12E74FEA4102B2F1E04324BFB3F577
:100A2000001CDCF1FE5C0DD901F0004C4FEAC00265
:100A30004CEA5070B2F1004F40EB830008BF20F049
:100A40000100704711F0804F21D113F13872BCBF03
:100A500001F00040704741F480114FEA5252C2F158
:100A60001802C2F1200C10FA0CF320FA02F018BFA1
:100A700040F001004FEAC1234FEAD32303FA0CFCF4
:100A800040EA0C0023FA02F34FEA4303CCE77FEA83
:100A9000625307D150EA01331EBF4FF0FE4040F4CD
:100AA0004000704701F0004040F0FE4040F400007C
:100AB000704700BF53B94AB9002908BF00281CBFBE
:100AC0004FF0FF314FF0FF3000F07AB9ADF1080C74
:100AD0006DE904CE00F006F8DDF804E0DDE902235C
:100AE00004B070472DE9F0478C460D460446089E39
:100AF000002B51D18A4217466DD9B2FA82FEBEF15F
:100B0000000F0BD0CEF1200C01FA0EF520FA0CFCF0
:100B100002FA0EF74CEA050C00FA0EF44FEA174AF7
:100B2000250CBCFBFAF81FFA87F90AFB18CC45EA3A
:100B30000C4508FB09F3AB420AD9ED1908F1FF3265
:100B400080F02381AB4240F22081A8F102083D44AD
:100B5000ED1AA4B2B5FBFAF00AFB105544EA0544BD
:100B600000FB09F9A14509D9E41900F1FF3380F030
:100B70000A81A14540F2078102383C44A4EB0904F4
:100B800040EA08400021002E61D024FA0EF4002330
:100B900034607360BDE8F0878B4207D9002E54D0D3
:100BA000002186E821000846BDE8F087B3FA83F10A
:100BB000002940F08E80AB4202D3824200F2FA80DC
:100BC000841A65EB03050120AC46002E3FD086E871
:100BD0001010BDE8F08712B90127B7FBF2F7B7FA9A
:100BE00087FEBEF1000F34D1EB1B3A0C1FFA87FCD5
:100BF0000121B3FBF2F8250C02FB183345EA03454B
:100C00000CFB08F3AB4207D9ED1908F1FF3002D213
:100C1000AB4200F2D1808046ED1AA3B2B5FBF2F0F0
:100C200002FB105543EA05440CFB00FCA44507D920
:100C3000E41900F1FF3302D2A44500F2B88018464F
:100C4000A4EB0C0440EA08409DE731463046BDE87D
:100C5000F087CEF1200405FA0EF307FA0EF720FA1A
:100C600004F83A0C25FA04F448EA0308B4FBF2F15C
:100C70004FEA184502FB11441FFA87FC45EA044578
:100C800001FB0CF3AB4200FA0EF409D9ED1901F1A6
:100C9000FF3080F08A80AB4240F2878002393D44C9
:100CA000EB1A1FFA88F5B3FBF2F002FB103345EAAA
:100CB000034500FB0CF3AB4207D9ED1900F1FF38F7
:100CC0006FD2AB426DD902383D44EB1A40EA014184
:100CD0008FE7C1F1200722FA07F88B4005FA01F4EB
:100CE00048EA030320FA07FE4FEA134CFD404EEAA0
:100CF000040EB5FBFCF94FEA1E440CFB19551FFA14
:100D000083F844EA054509FB08F4AC4202FA01F213
:100D100000FA01FA08D9ED1809F1FF3043D2AC42CC
:100D200041D9A9F102091D442D1B1FFA8EFEB5FB06
:100D3000FCF00CFB10554EEA054400FB08F8A045FA
:100D400007D9E41800F1FF3529D2A04527D9023888
:100D50001C4440EA0940A4EB0804A0FB02894C456E
:100D6000C6464D4615D312D056B1BAEB0E0364EB0E
:100D7000050404FA07F7CB401F43CC40376074608A
:100D80000021BDE8F0871846F8E69046E0E6C24547
:100D9000EAD2B8EB020E69EB03050138E4E7284616
:100DA000D7E7404691E78146BEE7014678E702383B
:100DB0003C4445E7084608E7A8F102083D442BE714
:100DC000704700BF38B50E4A0E4B054618784FF4F1
:100DD0007A73B3FBF0F31068B0FBF3F000F048FA5D
:100DE000044658B90F2D09D8024629464FF0FF3066
:100DF00000F00AFA044B20461D6038BD012038BDC2
:100E000008000020000000200400002008B50B4B63
:100E10001A6842F400721A601A6842F480621A601A
:100E20001A6842F480721A60032000F0DBF9002097
:100E3000FFF7C8FF01F046FC002008BD003C02405F
:100E4000034A044B11681B780B441360704700BFC2
:100E5000AC00002000000020014B1868704700BF64
:100E6000AC00002038B50446FFF7F6FF631C1CBF3A
:100E7000054B1B78054618BFE418FFF7EDFF401B34
:100E80008442FAD838BD00BF0000002038B50446BF
:100E9000002800F09B80056C25B901F063F86564BB
:100EA00084F83C50236CDB0600F18E80236C23F425
:100EB000885323F0020343F002032364444B5A682F
:100EC00022F440325A605A6861680A435A602368C3
:100ED00021695A6822F480725A605A6842EA0122F3
:100EE0005A605A68A16822F040725A605A680A43F0
:100EF0005A609A68E16822F400629A609A680A432C
:100F00009A603449A26A8A4252D0996821F070618D
:100F1000996099680A439A609A68E16A22F040529F
:100F20009A609A680A439A609A68217E22F00202C7
:100F30009A609A6842EA41029A6094F82020002A56
:100F40003ED05A68616A42F400625A605A6822F4DC
:100F500060425A605A68013942EA41325A60DA6A9C
:100F6000E16922F47002DA62DA6A013942EA015276
:100F7000DA629A6894F8301022F400729A609A68E3
:100F800042EA41229A609A68616922F480629A601A
:100F90009A68002042EA81229A606064236C23F000
:100FA000030343F001032364002384F83C3038BD7D
:100FB0009A6822F070629A609A6822F04052B2E712
:100FC0005A6822F40062C9E70120EDE7012038BD2C
:100FD000002301400100000F82B00023019390F82C
:100FE0003C30012B4ED0012380F83C3003689A68D6
:100FF000D10705D59A68D20714D4002002B07047F3
:101000009A68214942F001029A60204A1268B2FBB4
:10101000F1F202EB42020192019A002AEAD0019A0F
:10102000013AF8E7026C22F4E06222F0010242F495
:10103000807202645A68510541BF026C22F440522A
:1010400042F480520264026C12F480521CBF426C63
:1010500022F006024264002280F83C206FF0220257
:101060001A600B4A5268D20608D1986810F04050B6
:10107000C3D19A6842F080429A60BFE7054A934222
:10108000BBD1F2E70220B9E740420F000800002080
:1010900000230140002001400368D86C7047000025
:1010A000F7B50023019390F83C30012B6ED00D680A
:1010B00004688A680123092D80F83C30AEB22AD931
:1010C00006EB4603E7681E3B4FF0070E0EFA03FEE1
:1010D00027EA0E07E760E76802FA03F33B43E360A1
:1010E0004A68062A4FEA820325D81344676B591FC2
:1010F0001F238B4027EA03036363626B06FA01F147
:1011000011436163324B9C4234D0002380F83C3061
:10111000184603B0F0BD276905EB45034FF0070EF5
:101120000EFA03FE27EA0E072761276902FA03F386
:101130003B432361D4E70C2A0ED81344216BA3F15F
:1011400023021F23934021EA03032363236B06FA40
:1011500002F21A432263D5E71344E16A413B1F229E
:101160009A4021EA0202E262E26A06FA03F11143BE
:10117000E162C7E7122D0BD1164B5A6822F4000228
:101180005A605A6842F480025A60BEE70220C0E703
:10119000114B9D4201D0112DB7D10E4B5A6822F44C
:1011A00080025A605A6842F400025A600A4B9D421B
:1011B000ABD10A4B0A4A1B68B3FBF2F20A23534332
:1011C0000193019B002BA0D0019B013BF8E700BFDE
:1011D0000020014000230140120000100800002000
:1011E00040420F00074AD36823F4E0631B041B0C42
:1011F00043F0BF63000243F4003300F4E0600343B4
:10120000D360704700ED00E0174B30B5DC68C4F3E5
:101210000224C4F10703251D042B28BF0423062D37
:101220004FF0010505FA03F303F1FF338CBF033CD4
:1012300000241940A14005FA04F4013C2240002892
:1012400042EA01024FEA0212ADBF00F1604000F035
:101250000F00064B00F56140B5BFD2B2D2B21A54AE
:1012600080F8002330BD00BF00ED00E014ED00E089
:101270000138B0F1807F0AD2064B074A5860F0214E
:1012800082F823100020072298601A60704701201E
:10129000704700BF10E000E000ED00E02DE9F04FE6
:1012A00085B00B68DFF88C81604A01934FF001092B
:1012B0000023019D09FA03F42540AC4240F0A680CA
:1012C0004C6824F0100C0CF1FF36012E4FEA430E4F
:1012D00012D88768032606FA0EF627EA0607CE68B4
:1012E00006FA0EF63E4386604768C4F3001627EA06
:1012F00005079E403E4346600326C76806FA0EF681
:10130000F64307EA060A8F6807FA0EF747EA0A0764
:10131000BCF1020FC76016D14FEAD30A00EB8A0A6C
:1013200003F0070BDAF820704FEA8B0B4FF00F0C2D
:101330000CFA0BFC27EA0C0C0F6907FA0BF747EACB
:101340000C07CAF8207007683E4004F0030707FA4C
:101350000EFE4EEA06060660E60057D54FF0000B7B
:10136000CDF80CB0D8F84470314E47F48047C8F837
:101370004470D8F8447007F480470397039F23F024
:10138000030707F1804707F59C3703F0030CD7F8F4
:1013900008A04FEA8C0C4FF00F0E0EFA0CFEB04274
:1013A0002AEA0E0E39D006F58066B04237D006F52F
:1013B0008066B04235D006F58066B04233D006F57F
:1013C0008066B04214BF0726042606FA0CF646EAE9
:1013D0000E06BE601668EF4314F4803F0CBF3E401B
:1013E0002E431660566814F4003F0CBF3E402E4357
:1013F0005660966814F4801F0CBF3E402E439660E2
:10140000D668A40254BF3E402E43D6600133102B51
:101410007FF44FAF05B0BDE8F08F5E46D5E70126FB
:10142000D3E70226D1E70326CFE700BF003C014007
:1014300000000240003802400369194214BF012035
:10144000002070470AB1816170470904FBE7016819
:101450004B6913F480634FF0000210D06FF4806387
:101460004B612023026380F83D3080F83E20036CFE
:1014700080F83C2043F004030364012070471846C1
:1014800070472DE9F843044617469946C1F30748CB
:101490008EB22568B8F1010F0CBF6B69AB6936EAF3
:1014A000030314BF0120002008B9BDE8F8836B696D
:1014B0005A0516D52B6843F400732B606FF48063D4
:1014C0006B6120220023236384F83D2084F83E30A2
:1014D000226C42F00402226484F83C300120BDE812
:1014E000F8837B1CD5D0FFF7B7FCA0EB090087423F
:1014F00001D3002FCDD100232022236384F83D2087
:1015000084F83E30226C42F02002E4E770B50446D5
:101510000D46164623685B695B0701D5002070BD48
:101520002046FFF794FFA8B96A1CF3D0FFF794FC9C
:10153000801B854201D3002DECD1002320222363A0
:1015400084F83D2084F83E30226C84F83C3042F030
:1015500020022264012070BD2DE9F843089E044654
:1015600090461F46C1F307498DB22368B9F1010FB8
:101570000CBF5B699B6935EA03030CBF01230023A1
:10158000434502D00020BDE8F8837B1CEDD0FFF777
:1015900063FC801B874201D3002FE6D10023202269
:1015A000236384F83D2084F83E30226C84F83C307C
:1015B00042F0200222640120BDE8F88370B50446A1
:1015C0000D46164623685B691B0601D5002070BDD9
:1015D0002046FFF73CFFA8B96A1CF3D0FFF73CFC9C
:1015E000801B854201D3002DECD1002320222363F0
:1015F00084F83D2084F83E30226C84F83C3042F080
:1016000020022264012070BD70B5044608B9012093
:1016100070BD90F83D3003F0FF021BB980F83C200C
:1016200000F0BAFD242384F83D3023681A6822F0C4
:1016300001021A601A6842F400421A601A6822F421
:1016400000421A6000F0D0FB6568414B9D424DD8C6
:10165000404B9842DBD922683F495368B0FBF1F117
:1016600023F03F030B435360136A23F03F03013120
:1016700019431162D169364B21F44F419D4221F04B
:10168000FF0100F1FF3048D86D00B0FBF5F00130EC
:10169000C0F30B03042B38BF04230B43D361116841
:1016A000206AE36921F0C00103430B431360916892
:1016B000E068236921F40341034321F0FF010B4358
:1016C0009360D168A069636921F0FF0103430B4374
:1016D000D360136843F001031360002020232064CB
:1016E00084F83D30206384F83E0070BD1B4B984267
:1016F0008DD92268184E5368B0FBF6F623F03F03ED
:1017000033435360136A4FF49671714323F03F03E0
:101710004FF47A76B1FBF6F1A9E7A36853B905EB6C
:101720004503B0FBF3F0431CC3F30B036BB143F46D
:101730000043B2E719236B43B0FBF3F0431CC3F340
:101740000B0313B143F44043A7E70123A5E700BF10
:10175000A08601007F841E0040420F00FF083D006C
:101760002DE9FF4104461F460D469046FFF774FBE6
:1017700094F83D30202B064604D00225284604B0BC
:10178000BDE8F0810090192301225B492046FFF754
:10179000E3FE0028F1D194F83C30012BEDD0012379
:1017A00084F83C3023681A68D2075EBF1A6842F09A
:1017B00001021A601A6822F400621A60212284F879
:1017C0003D20102284F83E20002222646785628D2D
:1017D00022854A4AE262E26AC4F82480082A04D0D8
:1017E000012A02D012F5803F04D11A6842F48072B7
:1017F0001A6002E0226B122AF7D0002200960A9BA0
:101800004FF001112046FFF7A7FE226838B1136898
:10181000DB0544BF4FF4007323640125AEE7236961
:10182000B3F5804F13D105F0FE05156133460A9AD2
:1018300033492046FFF725FE05460028EDD12368F1
:1018400003905A6903929B690393039B44E0EB1155
:1018500003F0060343F0F00313612A490A9A334662
:101860002046FFF70EFE0028D7D12368EDB21D6198
:10187000DCE732460A992046FFF7A0FE40B1236C10
:10188000042B01BF2268136843F400731360C4E79C
:10189000636A20681A4612F8011B01616262628D58
:1018A000013A92B26285228D4769511E89B27F0743
:1018B00021850AD549B15978016102336362638D8C
:1018C000013B9BB2023A6385228532460A99204643
:1018D000FFF71CFE0028D2D1238D002BC9D121682F
:1018E0000A6842F400720A60202284F83D2084F8DD
:1018F0003C3084F83E3041E7020010000000FFFF5A
:1019000002000100080001002DE9F341044608B976
:1019100001203FE00368DD0710D4236898075AD4FC
:1019200023681A0700F19C8023685B0700F1BA80E6
:10193000A069002840F01B8100202BE0A44B9A688E
:1019400002F00C02042A07D09A6802F00C02082A5E
:101950000AD15B68590207D59D4B1B689A03DCD5F9
:101960006368002BD9D1D3E76368994DB3F5803F05
:1019700013D12B6843F480332B60FFF76DFA944D3D
:1019800006462B689B03C8D4FFF766FA801B6428C1
:10199000F7D9032002B0BDE8F081B3F5A02F04D140
:1019A0002B6843F480232B60E3E72A6822F480321B
:1019B0002A602A6822F480222A60002BDDD1FFF7FA
:1019C0004BFA06462B689F03A7D5FFF745FA801B05
:1019D0006428F7D9DDE77E4B9A6812F00C0F07D028
:1019E0009A6802F00C02082A11D15B685E020ED4DC
:1019F000774B1A68950702D5E268012A88D11A68E0
:101A0000216922F0F80242EAC1021A6088E7E2681E
:101A1000704BB2B101221A60FFF71EFA6C4D0646F8
:101A20002B68980707D52B68226923F0F80343EA4F
:101A3000C2032B6074E7FFF70FFA801B0228EFD96F
:101A4000A7E71A60FFF708FA614D06462B68990769
:101A50007FF566AFFFF700FA801B0228F6D998E7FA
:101A600062695D4B7AB101221A60FFF7F5F9584DB2
:101A700006466B6F9F073FF557AFFFF7EDF9801BE9
:101A80000228F6D985E71A60FFF7E6F9504D0646B9
:101A90006B6F98077FF548AFFFF7DEF9801B0228D0
:101AA000F6D976E74A4B1A6C12F0805228D101928F
:101AB0001A6C42F080521A641B6C03F0805301933D
:101AC000019B0126454D2B68D9051BD5A368404DC8
:101AD000012B27D12B6F43F001032B67FFF7BCF9D4
:101AE0003B4D074641F288382B6F9B0739D5002EB6
:101AF0003FF41EAF364A136C23F08053136417E78C
:101B00000026DFE72B6843F480732B60FFF7A4F90E
:101B100007462B68DA05D9D4FFF79EF9C01B0228C7
:101B2000F7D936E7052B04D12B6F43F004032B675D
:101B3000D0E72A6F22F001022A672A6F22F00402FE
:101B40002A67002BCAD1FFF787F941F28838074688
:101B50002B6F9807CBD5FFF77FF9C01B4045F7D90E
:101B600017E7FFF779F9C01B4045BDD911E7184DBC
:101B7000AB6803F00C03082B47D0194E0023022852
:101B8000336035D1FFF768F907462B68990129D4EE
:101B9000226AE3691343626A43EA8213E26A43EA10
:101BA0000263A26A0A4C5208013A43EA02436B609C
:101BB00001233360FFF750F9054623689A013FF58A
:101BC000BBAEFFF749F9401B0228F6D9E1E600BF9A
:101BD0000038024000004742800E4742007000403B
:101BE00060004742FFF738F9C01B0228CDD9D0E684
:101BF000FFF732F904462B689B017FF59DAEFFF796
:101C00002BF9001B0228F6D9C3E601283FF4C2AE27
:101C10006868E36900F480029A427FF479AE226A30
:101C200000F03F0393427FF473AE626A47F6C073DD
:101C3000034093427FF46CAEA26A00F440339342B7
:101C40007FF466AEE36A00F07060C01A18BF01202E
:101C5000A0E600BF134908B58B6803F00C03042B02
:101C600003D0082B03D0104808BD104808BD4A68AF
:101C70004B68496813F4800314BF0C480A48C1F349
:101C8000881118BF002302F03F02A1FB0001FEF7FC
:101C900011FF044B5B68C3F3014301335B00B0FBEE
:101CA000F3F008BD003802400024F40000127A006E
:101CB0002DE9F0410D46044610B90120BDE8F08140
:101CC000444B1A6802F00F028A4229D321688F0719
:101CD0002ED4C80741D43F4B1A6802F00F02954238
:101CE00067D3226851076DD4130707D53A4A216993
:101CF000936823F4604343EAC1039360FFF7AAFFAC
:101D0000354B364A9B68C3F30313D35CD840344B3E
:101D10001860344B1868FFF755F80020BDE8F081D3
:101D2000CAB21A701B6803F00F039942C5D1CDE700
:101D3000294B11F0040F1EBF9A6842F4E0529A60DA
:101D40000E0742BF9A6842F460429A609A68A0689F
:101D500022F0F00202439A60BBE762681E4B012A40
:101D60001DD11B6813F4003FA7D01B4EB36823F0AE
:101D700003031343B360FFF76FF841F28838074657
:101D8000B368626803F00C03B3EB820FA3D0FFF7D4
:101D900063F8C01B4045F3D90320BDE8F081911ED4
:101DA00001291B6802D813F0007FDDE713F0020F52
:101DB000DAE7EAB21A701B6803F00F039D427FF462
:101DC0007CAF8EE70449E0688B6823F4E05303435B
:101DD0008B6089E7003C0240003802401E31000859
:101DE0000800002004000020044B054A9B68C3F350
:101DF0008223D35C034A1068D84070470038024001
:101E00002E31000808000020022380F83D300368CE
:101E10009A6802F00702062A1EBF1A6842F0010201
:101E20001A60012380F83D3000207047244A03687F
:101E300090420ED0B0F1804F0BD0A2F57C42904280
:101E400007D002F58062904203D002F58062904292
:101E500015D14A6823F070031343194A904219D0F0
:101E6000B0F1804F16D0A2F57C42904212D002F51C
:101E7000806290420ED002F5806290420AD0114AF0
:101E8000904207D002F58062904203D002F5806252
:101E9000904203D1CA6823F4407313434A6923F084
:101EA0008003134303608B68C3620B688362044B37
:101EB000984204BF0B69036301234361704700BF6D
:101EC000000001400040014010B50446A0B190F868
:101ED0003D3003F0FF021BB980F83C2000F040FCCD
:101EE000022384F83D302068211DFFF79FFF012366
:101EF00084F83D30002010BD012010BD1FB5102218
:101F00000021684600F098FC1348144B144A826282
:101F10004FF4803480E818000023012483600361BB
:101F2000037680F82030C362C360C46180F830302B
:101F30004461FEF7ABFF08B100F0C2FB08238DE857
:101F400018006946072304480293FFF7A9F808B16F
:101F500000F0B6FB04B010BDB0000020002001402E
:101F60000100000F10B5044688B01422002103A818
:101F700000F062FC2268124B9A421ED103F58C33AA
:101F8000002101915A6C0F4842F480725A645A6CD5
:101F900002F480720192019A02911A6B42F00202DD
:101FA0001A631B6B03F002030293029B012303934A
:101FB00003A903230493FFF771F908B010BD00BF14
:101FC000002001400004024000B589B01422002125
:101FD00003A800F031FC144B144800220092196B46
:101FE00041F080011963196B01F0800100910099A3
:101FF0000192196B41F001011963196B01F00101A4
:102000000191019902921A6B42F002021A631B6B52
:1020100003F002030293029B03A908230393FFF733
:102020003DF909B05DF804FB0038024000000240B1
:102030001FB500F0F003000143F00C02C0B243F002
:1020400008038DF80D3040F00C038DF80E3040F091
:10205000080064238DF80C208DF80F00009303AA6C
:1020600004234E210248FFF77BFB05B05DF804FB1B
:10207000F80000201FB500F0F003000143F00D024E
:10208000C0B243F009038DF80D3040F00D038DF818
:102090000E3040F0090064238DF80C208DF80F00FD
:1020A000009303AA04234E210248FFF759FB05B011
:1020B0005DF804FBF800002010B50020FFF7B8FF22
:1020C00064242020FFF7D6FF013CFAD110BD08B5EB
:1020D0003220FEF7C7FE3020FFF7AAFF0520FEF7EB
:1020E000C1FE3020FFF7A4FF0120FEF7BBFE302029
:1020F000FFF79EFF0A20FEF7B5FE2020FFF798FFAE
:102100000A20FEF7AFFE2820FFF792FF0120FEF71E
:10211000A9FE0820FFF78CFF0120FEF7A3FE012097
:10212000FFF786FF0120FEF79DFE0120FEF79AFED5
:102130000620FFF77DFF0120FEF794FE0C20BDE88E
:102140000840FFF775BF10B5441E14F8010F00B921
:1021500010BDFFF78FFFF8E708B50C480C4BDFF810
:1021600034E04FF4804280E8084000238360C3607D
:10217000026143618361C3610362FFF745FA18B1ED
:10218000BDE8084000F09CBA08BD00BFF800002080
:1021900000540040A086010030B5044689B01422E6
:1021A000002103A800F048FB2268144B9A4223D177
:1021B000134C144800250195236B43F0020323635D
:1021C000236B03F002030193019BC02303931223AB
:1021D0000493012305930323069303A90423079380
:1021E000FFF75CF80295236C43F400132364236C1F
:1021F00003F400130293029B09B030BD0054004069
:102200000038024000040240034B1B6800225A625F
:102210005A6A8242FCD370475C01002000B52DED64
:10222000028B85B0102200216846B0EE408A00F093
:1022300003FB8020FFF7FCFEFDEEC87A064917EE8F
:10224000902A684600F000FB6846FFF77CFF05B067
:10225000BDEC028B5DF804FBA530000800B52DED48
:10226000028B85B0102200216846B0EE408A00F053
:10227000E3FAC020FFF7DCFEFDEEC87A064917EE50
:10228000902A684600F0E0FA6846FFF75CFF05B068
:10229000BDEC028B5DF804FB9C30000830B587B0C4
:1022A00004460D461422002101A800F0C5FA0123BE
:1022B00001A9204601950293FEF7F0FF07B030BD5B
:1022C00030B587B004460D461422002101A800F065
:1022D000B3FA012301A9204601950393FEF7DEFF1F
:1022E00007B030BD10B50E4C08212046FFF7D6FFD1
:1022F000002208212046FFF7A5F84FF49660FFF76B
:1023000083FF082120460122FFF79CF81420FFF7E5
:102310007BFF20460821BDE81040FFF7D1BF00BF7A
:102320000000024038B508211048FFF7C9FF2820F7
:10233000FFF76AFF08210D48FFF77EF898B9502093
:10234000FFF762FF08210948FFF776F8002814BF5D
:102350000124FF24054D08212846FFF76DF80028C9
:10236000F9D1204638BD0024F4E700BF0000024048
:1023700070B5114E0725002408213046FFF75CF8A0
:102380000028F9D02820FFF73FFF08213046FFF74B
:1023900053F80123AB4060B924EA03040821304616
:1023A000FFF74AF80028F9D115F1FF35E4D22046AD
:1023B00070BD1C43E4B2F1E70000024030B5204C90
:1023C000204D85B02046FEF767FE1F4BDFED1F6AEC
:1023D000188083B207EE903AF8EEE77AB0EE087A0A
:1023E00067EE877A1A4B87EEA67A1022002168469C
:1023F000DFED187A83ED007ADFED176A37EE677A42
:10240000C7EE267AB3EE057A77EE877AC5ED007AC5
:1024100000F012FA8020FFF70BFED5ED007A0F498D
:10242000FDEEE77A684617EE902A00F00DFA68464E
:10243000FFF789FE2046FEF7CFFD05B030BD00BF97
:10244000B00000209C0000204C01002000F07F45DF
:102450009800002052B81E3F8FC2F53CAF300008F4
:102460000748084B4FF0470C80E808104FF6FE7203
:1024700000238360C26003618361FFF725BD00BF55
:102480005C0100200044014030B595B030220021AD
:1024900008A800F0D1F90021142203A800F0CCF91B
:1024A00000241B4B01941A6C42F080521A641B6C7E
:1024B00003F080530193019B164B02941A6842F477
:1024C00040421A601B6803F440430293029B0123BD
:1024D00008934FF4803309934FF48003022564225C
:1024E0000F9308A804231093119213930E9512953D
:1024F000FFF70AFA0F23039303214FF4805303A835
:102500000495059406930794FFF7D2FB15B030BDF0
:1025100000380240007000402DE98748FEF776FC45
:10252000FFF7B2FFFFF750FDFFF716FEFFF7E6FCDF
:10253000FFF796FF4F48DFF87C914F4D4F4C504FBF
:10254000504EDFF874B1FFF75FFCFFF7C0FD80204D
:10255000FFF76EFD4C48FFF7F6FDC020FFF768FD62
:102560004A48FFF7F0FD4FF4FA60FEF77BFCFFF7F7
:10257000A3FD0023464889F800302B7023703B7080
:102580003370FEF729FD8020FFF752FD5846FFF714
:10259000DAFDC020FFF74CFD3E48DFF820A1FFF731
:1025A000D2FD4FF4AF60FEF75DFCFFF785FDFFF74E
:1025B00099FEFFF7B7FE89F80000FFF7D9FE2870F3
:1025C000FFF7D6FE2070FFF7D3FE3870FFF7D0FE7E
:1025D0003070FFF7CDFE304B94F8008018803B78C8
:1025E000307840EA03202D4B18802B7848EA0328E6
:1025F0002B4BA3F80080FDF795FF0022294BFEF737
:1026000021F9FEF707FA284B019018604046FDF7C4
:1026100089FF0022234BFEF715F9FEF7FBF99DED2C
:10262000010ACAF80000FFF7F9FD9AED000AFFF76A
:1026300015FE40F6B830FEF715FCFFF73DFD802093
:10264000FFF7F6FC1948FFF77EFDC020FFF7F0FC0E
:102650001748FFF778FD4FF4AF60FEF703FCFFF774
:102660002BFD0B48FFF7AAFE40F6B830FEF7FAFB49
:1026700089E700BF5C0100204E01002055010020C9
:102680005401002058010020BA300008CA30000868
:10269000B0000020EC30000856010020520100205C
:1026A000500100200000244094000020FC3000086D
:1026B0000D31000890000020DB3000088C00002065
:1026C0007047000082B00C4B002100915A6C42F41C
:1026D00080425A645A6C02F480420092009A01913E
:1026E0001A6C42F080521A641B6C03F08053019301
:1026F000019B02B0704700BF003802407047FEE700
:10270000FEE7FEE7FEE7704770477047FEF798BBAD
:1027100008B50A4B1968024609B9094919601868D1
:10272000694602448A4206D900F05CF80C23036033
:102730004FF0FF3008BD1A6008BD00BFA0000020A8
:10274000A0010020054BD3F8882042F47002C3F8A2
:1027500088204FF000629A60704700BF00ED00E0F3
:102760000268094B9A4282B00BD100230193074BB8
:102770005A6C42F400325A645B6C03F400330193E8
:10278000019B02B0704700BF004401400038024086
:10279000DFF834D0002103E00C4B5B584350043188
:1027A0000B480C4B42189A42F6D30B4A02E0002326
:1027B00042F8043B094B9A42F9D3FFF7C3FF00F0FC
:1027C00017F8FFF7A9FE7047000002207C310008CF
:1027D000000000207000002070000020A0010020F8
:1027E000FEE70000014B1868704700BF0C00002096
:1027F00070B50D4E0D4CA41BA4100025A54209D1A7
:102800000B4E0C4C00F03EFCA41BA4100025A5426E
:1028100005D170BD56F8253098470135EEE756F8DA
:10282000253098470135F2E774310008743100080B
:10283000743100087831000802440346934200D105
:10284000704703F8011BF9E70EB400B59CB04FF4D4
:1028500002711DABADF81410029006906FF00041AC
:102860000A48049107914FF6FF7153F8042BADF815
:1028700016100068019302A900F066F8029B00227E
:102880001A701CB05DF804EB03B070470C00002018
:102890002DE9F0478E689E4282460C469146984646
:1028A00035D88A8912F4906F31D0256809696F1A7A
:1028B0006569022305EB450595FBF3F508F1010376
:1028C0003B449D4238BF1D46530531D5294600F093
:1028D00039FB064650B90C23CAF80030A38943F0EF
:1028E0004003A3814FF0FF30BDE8F0873A462169ED
:1028F00000F0B4FAA38923F4906343F08003A3812A
:10290000266165613E44ED1B2660A560464646454E
:1029100028BF464632464946206800F0AAFAA36816
:102920009B1BA36023681E4426600020BDE8F0873F
:102930002A4600F065FB06460028E1D12169504691
:1029400000F0B2FAC7E700002DE9F04F9DB08046D5
:1029500003938B891C060D4616460FD50B696BB980
:10296000402100F0EFFA2860286128B90C23C8F84C
:1029700000304FF0FF30C5E040236B610023099326
:1029800020238DF8293030238DF82A304FF0010BA9
:1029900037463C4614F8013B002B3CD1B7EB060A06
:1029A0000BD05346324629464046FFF771FF0130AF
:1029B00000F0A380099B534409933B78002B00F05F
:1029C0009C8000234FF0FF320493079305920693F7
:1029D0008DF853301A93052221785048FDF700FCFA
:1029E000671C049BD8B9D90644BF20228DF8532018
:1029F0001A0744BF2B228DF8532022782A2A16D09A
:102A0000079A00210A20274601343B78303B092BE6
:102A100051D9C9B111E0252BC0D02746B9E73F4AAB
:102A2000801A0BFA00F0184304903C46D3E7039A4F
:102A3000111D12680391002A01DB079204E0524243
:102A400043F00203079204933B782E2B0ED17B7840
:102A50002A2B07F1010132D1039B1A1D1B68039237
:102A6000002BB8BF4FF0FF33023705932C4C397859
:102A700003222046FDF7B4FB38B14023001B03FAC4
:102A800000F0049B034304930137397825488DF8FF
:102A9000281006227E1CFDF7A3FB002835D0224B10
:102AA000FBB9039B073323F0070308330393099B08
:102AB0004B4409936CE700FB02320121A3E700239A
:102AC000059318460A240F4601313A78303A092A0C
:102AD00003D9002BCAD00590C8E704FB00200123CE
:102AE000F1E703AB00932A46104B04A94046AFF32D
:102AF0000080B0F1FF3F8146D9D1AB895B063FF53D
:102B000038AF09981DB0BDE8F08F03AB00932A469B
:102B1000064B04A9404600F081F8EAE73631000888
:102B20003C310008403100080000000091280008F6
:102B30002DE9F04791461F468A680B69DDF8208031
:102B40009342B8BF1346C9F8003091F843200646B7
:102B50000C4612B10133C9F800302368990642BF10
:102B6000D9F800300233C9F80030256815F00605A1
:102B700007D104F1190AE368D9F800209B1A9D4295
:102B800029DB94F843302268003318BF01239206F2
:102B90002ED404F1430239463046C047013021D0DB
:102BA0002368E568D9F8002003F00603042B08BF6A
:102BB000AD1AA36822690CBF25EAE575002593428A
:102BC000C4BF9B1AED184FF000091A344D451BD1B4
:102BD0000020BDE8F0870123524639463046C04701
:102BE000013003D14FF0FF30BDE8F0870135C2E777
:102BF000E1185A1C302081F84300224494F8451013
:102C000082F843100233C4E7012322463946304696
:102C1000C0470130E6D009F10109D7E72DE9F043BB
:102C200017460A7E85B06E2A984606460C460C9BCF
:102C300001F1430E00F0BC801AD8632A2ED00AD8C6
:102C4000002A00F0C880582A00F08A8004F142056A
:102C500084F842202AE0642A01D0692AF6D121684A
:102C60001A6811F0800F23D0111D1960136827E036
:102C7000732A00F0B48008D86F2A2AD0702AE5D1D0
:102C80000A6842F020020A6003E0752A21D0782AFF
:102C9000DCD1782284F845206E4964E01A6801F19D
:102CA0004205111D1960136884F842300123A3E026
:102CB00011F0400F02F104011960D7D0B2F90030D1
:102CC000002B03DA2D225B4284F8432062490A225A
:102CD00017E02068196810F0800F03D0081D1860F5
:102CE0000B6806E010F0400F01F104001860F7D007
:102CF0000B8859496F2A14BF0A220822002084F841
:102D000043006568A560002DC0F29C80206820F01B
:102D100004002060002B3FD1002D40F095807546C7
:102D2000082A0BD12368DA0708D5236962689A421A
:102D3000DEBF302305F8013C05F1FF35AEEB05039E
:102D40002361CDF800803B4603AA21463046FFF7B9
:102D5000EFFE013055D14FF0FF3005B0BDE8F083F4
:102D600081F845203C492268186812F0800F00F174
:102D700004051D6001D0036802E05506FBD50388F9
:102D8000D00744BF42F0200222601BB9226822F023
:102D9000200222601022B1E77546B3FBF2F002FB7D
:102DA0001033CB5C05F8013D03460028F5D1B7E7A9
:102DB00008681A68496910F0800F04D0101D186067
:102DC0001368196007E010F0400F02F1040018606A
:102DD0001368F6D01980002323617546B1E71A689D
:102DE000111D19601568626800212846FDF7F8F981
:102DF00008B1401B606063682361002384F843309E
:102E00009FE723692A4639463046C0470130A2D0A1
:102E100023689B0707D5002504F11909E368039A85
:102E20009B1A9D4205DBE068039B9842B8BF184699
:102E300093E701234A4639463046C04701308AD0DD
:102E40000135EBE7002BA7D10B7884F8423004F171
:102E5000420565E7583100084731000810B5431EA8
:102E60000A44914200D110BD11F8014B03F8014F03
:102E7000F7E7884210B501EB020303D8421E9942DE
:102E80000CD110BD9842F9D28118D21AD34200D188
:102E900010BD13F8014D01F8014DF7E711F8014B92
:102EA00002F8014FEBE7000038B50546002945D090
:102EB00051F8043C0C1F002BB8BFE41800F0D6F802
:102EC0001F4A1368104633B9636014602846BDE892
:102ED000384000F0CCB8A3420CD921686218934264
:102EE00004BF1A685B68636004BF52182260046004
:102EF000ECE713465A680AB1A242FAD91968581881
:102F0000A0420BD120680144581882421960DDD1DB
:102F1000106852685A6001441960D7E702D90C233F
:102F20002B60D3E7206821188A4204BF11685268D9
:102F3000626004BF091821605C60C7E738BD00BF4C
:102F4000A400002070B5CD1C25F0030508350C2D1C
:102F500038BF0C25002D064601DBA94203D90C23FE
:102F60003360002070BD00F081F8234A14682146C8
:102F700091B9224C23681BB9304600F067F82060F5
:102F80002946304600F062F8431C26D10C233360FA
:102F9000304600F06CF8E4E70B685B1B1AD40B2B8F
:102FA0000FD90B60CD50CC18304600F060F804F11A
:102FB0000B00231D20F00700C31A1BD05A42E25019
:102FC00070BD8C420DBF63684B686360136018BFAF
:102FD0000C46E9E70C464968CAE7C41C24F0030420
:102FE000A04205D0211A304600F030F80130CDD093
:102FF0002560D9E770BD00BFA4000020A800002014
:10300000F8B5074614460E4621B91146BDE8F8400A
:10301000FFF798BF22B9FFF747FF25462846F8BDBE
:1030200000F026F884420FD921463846FFF78AFF80
:1030300005460028F2D031462246FFF70FFF314601
:103040003846FFF731FFE9E73546E7E738B5064C84
:103050000023054608462360FFF75AFB431C02D1B4
:10306000236803B12B6038BD9C0100207047704776
:1030700051F8040C0028A0F10400BCBF0B58C01884
:1030800070470000F8B500BFF8BC08BC9E4670470A
:0C309000F8B500BFF8BC08BC9E467047B5
:10309C0052483A20256925250054454D503A2025A3
:1030AC0069430057696C673A2025692525005779D3
:1030BC006B6F6E616E652070727A657A3A0050693A
:1030CC006F7472204F74746120313839303200546F
:1030DC00656D70657261747572612070727A7900B9
:1030EC00706F6A656D6E696B7520676C65627900CF
:1030FC0057696C676F746E6F736320676C65627968
:10310C000020207720706F6A656D6E696B752020CA
:10311C00200000000000000000000102030406076C
:10312C0008090000000001020304232D302B2000AD
:10313C00686C4C0065666745464700303132333465
:10314C003536373839414243444546003031323305
:10315C0034353637383961626364656600000000C7
:08316C0078D9FF7F010000008B
:04317400C501000889
:04317800A1010008A9
:10317C0001000000100000000024F40010000020EA
:10318C000000000000000000000000000000000033
:10319C000000000000000000000000000000000023
:1031AC000000000000000000000000000000000013
:1031BC000000000000000000000000000000000003
:1031CC0000000000000000000000000000000000F3
:1031DC0000000000000000000000000000000000E3
:040000050800279137
:00000001FF
